{
  "contractName": "Adoption",
  "abi": [
    {
      "inputs": [
        {
          "internalType": "address",
          "name": "_priceContractAddress",
          "type": "address"
        },
        {
          "internalType": "address",
          "name": "_petIdContract",
          "type": "address"
        }
      ],
      "payable": false,
      "stateMutability": "nonpayable",
      "type": "constructor"
    },
    {
      "constant": true,
      "inputs": [
        {
          "internalType": "uint256",
          "name": "",
          "type": "uint256"
        }
      ],
      "name": "adopters",
      "outputs": [
        {
          "internalType": "address",
          "name": "",
          "type": "address"
        }
      ],
      "payable": false,
      "stateMutability": "view",
      "type": "function"
    },
    {
      "constant": true,
      "inputs": [],
      "name": "petIdContract",
      "outputs": [
        {
          "internalType": "contract PetIdContract",
          "name": "",
          "type": "address"
        }
      ],
      "payable": false,
      "stateMutability": "view",
      "type": "function"
    },
    {
      "constant": true,
      "inputs": [],
      "name": "priceContract",
      "outputs": [
        {
          "internalType": "contract PetPriceContract",
          "name": "",
          "type": "address"
        }
      ],
      "payable": false,
      "stateMutability": "view",
      "type": "function"
    },
    {
      "constant": false,
      "inputs": [
        {
          "internalType": "uint256",
          "name": "petId",
          "type": "uint256"
        }
      ],
      "name": "adopt",
      "outputs": [
        {
          "internalType": "uint256",
          "name": "",
          "type": "uint256"
        }
      ],
      "payable": true,
      "stateMutability": "payable",
      "type": "function"
    },
    {
      "constant": true,
      "inputs": [],
      "name": "getAdopters",
      "outputs": [
        {
          "internalType": "address[16]",
          "name": "",
          "type": "address[16]"
        }
      ],
      "payable": false,
      "stateMutability": "view",
      "type": "function"
    }
  ],
  "bytecode": "0x608060405267016345785d8a000060105534801561001c57600080fd5b506040516106ed3803806106ed8339818101604052604081101561003f57600080fd5b81019080805190602001909291908051906020019092919050505081601160006101000a81548173ffffffffffffffffffffffffffffffffffffffff021916908373ffffffffffffffffffffffffffffffffffffffff16021790555080601260006101000a81548173ffffffffffffffffffffffffffffffffffffffff021916908373ffffffffffffffffffffffffffffffffffffffff1602179055505050610600806100ed6000396000f3fe60806040526004361061004a5760003560e01c80633de4eb171461004f578063403d4a43146100a257806343ae80d3146100f95780638588b2c514610174578063ae372ec1146101b6575b600080fd5b34801561005b57600080fd5b5061006461020d565b6040518082601060200280838360005b8381101561008f578082015181840152602081019050610074565b5050505090500191505060405180910390f35b3480156100ae57600080fd5b506100b761028e565b604051808273ffffffffffffffffffffffffffffffffffffffff1673ffffffffffffffffffffffffffffffffffffffff16815260200191505060405180910390f35b34801561010557600080fd5b506101326004803603602081101561011c57600080fd5b81019080803590602001909291905050506102b4565b604051808273ffffffffffffffffffffffffffffffffffffffff1673ffffffffffffffffffffffffffffffffffffffff16815260200191505060405180910390f35b6101a06004803603602081101561018a57600080fd5b81019080803590602001909291905050506102e7565b6040518082815260200191505060405180910390f35b3480156101c257600080fd5b506101cb610582565b604051808273ffffffffffffffffffffffffffffffffffffffff1673ffffffffffffffffffffffffffffffffffffffff16815260200191505060405180910390f35b6102156105a8565b6000601080602002604051908101604052809291908260108015610284576020028201915b8160009054906101000a900473ffffffffffffffffffffffffffffffffffffffff1673ffffffffffffffffffffffffffffffffffffffff168152602001906001019080831161023a575b5050505050905090565b601260009054906101000a900473ffffffffffffffffffffffffffffffffffffffff1681565b600081601081106102c157fe5b016000915054906101000a900473ffffffffffffffffffffffffffffffffffffffff1681565b6000601260009054906101000a900473ffffffffffffffffffffffffffffffffffffffff1673ffffffffffffffffffffffffffffffffffffffff1663374c9258836040518263ffffffff1660e01b815260040180828152602001915050602060405180830381600087803b15801561035e57600080fd5b505af1158015610372573d6000803e3d6000fd5b505050506040513d602081101561038857600080fd5b810190808051906020019092919050505061040b576040517f08c379a000000000000000000000000000000000000000000000000000000000815260040180806020018281038252600c8152602001807f57726f6e6720506574204964000000000000000000000000000000000000000081525060200191505060405180910390fd5b601160009054906101000a900473ffffffffffffffffffffffffffffffffffffffff1673ffffffffffffffffffffffffffffffffffffffff16631de7463a346040518263ffffffff1660e01b815260040180828152602001915050602060405180830381600087803b15801561048057600080fd5b505af1158015610494573d6000803e3d6000fd5b505050506040513d60208110156104aa57600080fd5b810190808051906020019092919050505061052d576040517f08c379a000000000000000000000000000000000000000000000000000000000815260040180806020018281038252600c8152602001807f57726f6e6720616d6f756e74000000000000000000000000000000000000000081525060200191505060405180910390fd5b336000836010811061053b57fe5b0160006101000a81548173ffffffffffffffffffffffffffffffffffffffff021916908373ffffffffffffffffffffffffffffffffffffffff160217905550819050919050565b601160009054906101000a900473ffffffffffffffffffffffffffffffffffffffff1681565b60405180610200016040528060109060208202803883398082019150509050509056fea265627a7a723158204710db9cce144537637dd1590555221a2f4fa0cd3495fbd18de438abbd43bd7664736f6c63430005100032",
  "source": "pragma solidity ^0.5.0;\r\n\r\nimport \"./PetPriceContract.sol\";\r\nimport \"./PetIdContract.sol\";\r\n\r\ncontract Adoption {\r\n    address[16] public adopters;\r\n    uint petPrice = 0.10 ether;\r\n\r\n    PetPriceContract public priceContract; \r\n    PetIdContract public petIdContract;\r\n\r\n    constructor(address _priceContractAddress, address _petIdContract) public {\r\n        priceContract = PetPriceContract(_priceContractAddress);\r\n        petIdContract = PetIdContract(_petIdContract);\r\n    }\r\n\r\n    function adopt(uint petId) public payable returns(uint) {\r\n        \r\n        // require(petId >= 0 && petId <= 15);\r\n        require(petIdContract.checkPetId(petId), \"Wrong Pet Id\");\r\n\r\n        // require(msg.value == petPrice, \"Insufficient payment: 0.01 ETH required\");\r\n        require(priceContract.checkPrice(msg.value), \"Wrong amount\");\r\n\r\n        adopters[petId] = msg.sender;\r\n\r\n        return petId;\r\n    }\r\n\r\n    function getAdopters() public view returns (address[16] memory) {\r\n        return adopters;\r\n    }\r\n}",
  "sourcePath": "C:\\Users\\aigne\\.vscode\\pet-shop\\contracts\\Adoption.sol",
  "compiler": {
    "name": "solc",
    "version": "0.5.16+commit.9c3226ce.Emscripten.clang"
  },
  "schemaVersion": "3.4.16",
  "updatedAt": "2024-11-28T13:41:07.295Z",
  "devdoc": {
    "methods": {}
  },
  "userdoc": {
    "methods": {}
  }
}