{
  "contractName": "PetIdValidation",
  "abi": [
    {
      "inputs": [],
      "payable": false,
      "stateMutability": "nonpayable",
      "type": "constructor"
    },
    {
      "constant": true,
      "inputs": [
        {
          "internalType": "uint256",
          "name": "petId",
          "type": "uint256"
        }
      ],
      "name": "validatePetId",
      "outputs": [
        {
          "internalType": "bool",
          "name": "",
          "type": "bool"
        }
      ],
      "payable": false,
      "stateMutability": "view",
      "type": "function"
    }
  ],
  "bytecode": "0x608060405234801561001057600080fd5b50600160008080815260200190815260200160002060006101000a81548160ff02191690831515021790555060016000806001815260200190815260200160002060006101000a81548160ff02191690831515021790555060016000806002815260200190815260200160002060006101000a81548160ff02191690831515021790555060016000806003815260200190815260200160002060006101000a81548160ff02191690831515021790555060016000806004815260200190815260200160002060006101000a81548160ff02191690831515021790555060016000806005815260200190815260200160002060006101000a81548160ff02191690831515021790555060016000806006815260200190815260200160002060006101000a81548160ff02191690831515021790555060016000806007815260200190815260200160002060006101000a81548160ff02191690831515021790555060016000806008815260200190815260200160002060006101000a81548160ff02191690831515021790555060016000806009815260200190815260200160002060006101000a81548160ff0219169083151502179055506001600080600a815260200190815260200160002060006101000a81548160ff0219169083151502179055506001600080600b815260200190815260200160002060006101000a81548160ff0219169083151502179055506001600080600c815260200190815260200160002060006101000a81548160ff0219169083151502179055506001600080600d815260200190815260200160002060006101000a81548160ff0219169083151502179055506001600080600e815260200190815260200160002060006101000a81548160ff02191690831515021790555060ce806102b26000396000f3fe6080604052348015600f57600080fd5b506004361060285760003560e01c8063ba266e3814602d575b600080fd5b605660048036036020811015604157600080fd5b81019080803590602001909291905050506070565b604051808215151515815260200191505060405180910390f35b600080600083815260200190815260200160002060009054906101000a900460ff16905091905056fea265627a7a723158205bee5dead7c06976d37ba30729c7110f2e3d8816b7ce70fec31b6ce7653a1eb564736f6c63430005100032",
  "source": "pragma solidity ^0.5.0;\r\n\r\ncontract PetIdValidation {\r\n    mapping(uint => bool) private validPetId;\r\n\r\n    constructor() public {\r\n        validPetId[0] = true;\r\n        validPetId[1] = true;\r\n        validPetId[2] = true;\r\n        validPetId[3] = true;\r\n        validPetId[4] = true;\r\n        validPetId[5] = true;\r\n        validPetId[6] = true;\r\n        validPetId[7] = true;\r\n        validPetId[8] = true;\r\n        validPetId[9] = true;\r\n        validPetId[10] = true;\r\n        validPetId[11] = true;\r\n        validPetId[12] = true;\r\n        validPetId[13] = true;\r\n        validPetId[14] = true;\r\n    }\r\n\r\n    function validatePetId(uint petId) public view returns(bool) {\r\n        return validPetId[petId];\r\n    }\r\n}",
  "sourcePath": "C:\\Users\\aigne\\.vscode\\pet-shop\\contracts\\PetIdValidation.sol",
  "compiler": {
    "name": "solc",
    "version": "0.5.16+commit.9c3226ce.Emscripten.clang"
  },
  "schemaVersion": "3.4.16",
  "updatedAt": "2024-11-27T21:57:11.100Z",
  "devdoc": {
    "methods": {}
  },
  "userdoc": {
    "methods": {}
  }
}