{
  "contractName": "PetIdContract",
  "abi": [
    {
      "constant": false,
      "inputs": [
        {
          "internalType": "uint256",
          "name": "value",
          "type": "uint256"
        }
      ],
      "name": "checkPetId",
      "outputs": [
        {
          "internalType": "bool",
          "name": "",
          "type": "bool"
        }
      ],
      "payable": false,
      "stateMutability": "nonpayable",
      "type": "function"
    }
  ],
  "bytecode": "0x608060405234801561001057600080fd5b5060cd8061001f6000396000f3fe6080604052348015600f57600080fd5b506004361060285760003560e01c8063374c925814602d575b600080fd5b605660048036036020811015604157600080fd5b81019080803590602001909291905050506070565b604051808215151515815260200191505060405180910390f35b600080821015801560825750600f8211155b15608e57600190506093565b600090505b91905056fea265627a7a72315820a60f5bf6de910a9f1f9dd0681a593d5e78708c8e64bdc0c0c0bce316def0b82f64736f6c63430005100032",
  "source": "pragma solidity ^0.5.0;\r\n\r\ncontract PetIdContract {\r\n\r\n    function checkPetId(uint value) public returns(bool) {\r\n        if(value >= 0 && value <= 15) {\r\n            return true;\r\n        } else {\r\n            return false;\r\n        }\r\n    }\r\n}",
  "sourcePath": "C:\\Users\\aigne\\.vscode\\pet-shop\\contracts\\PetIdContract.sol",
  "compiler": {
    "name": "solc",
    "version": "0.5.16+commit.9c3226ce.Emscripten.clang"
  },
  "schemaVersion": "3.4.16",
  "updatedAt": "2024-11-28T13:41:07.299Z",
  "devdoc": {
    "methods": {}
  },
  "userdoc": {
    "methods": {}
  }
}