{
  "contractName": "PetPriceContract",
  "abi": [
    {
      "constant": false,
      "inputs": [
        {
          "internalType": "uint256",
          "name": "value",
          "type": "uint256"
        }
      ],
      "name": "checkPrice",
      "outputs": [
        {
          "internalType": "bool",
          "name": "",
          "type": "bool"
        }
      ],
      "payable": false,
      "stateMutability": "nonpayable",
      "type": "function"
    }
  ],
  "bytecode": "0x608060405267016345785d8a000060005534801561001c57600080fd5b5060c18061002b6000396000f3fe6080604052348015600f57600080fd5b506004361060285760003560e01c80631de7463a14602d575b600080fd5b605660048036036020811015604157600080fd5b81019080803590602001909291905050506070565b604051808215151515815260200191505060405180910390f35b60008054821415608257600190506087565b600090505b91905056fea265627a7a72315820c1f2e48d19c7b4545fa42b2ad6554c5886ace3d1328dda4e7cd8d2c7a164819a64736f6c63430005100032",
  "source": "pragma solidity ^0.5.0;\r\n\r\ncontract PetPriceContract {\r\n    uint petPrice = 0.10 ether;\r\n\r\n    function checkPrice(uint value) public returns(bool) {\r\n        if(value == petPrice) {\r\n            return true;\r\n        } else {\r\n            return false;\r\n        }\r\n    }\r\n}",
  "sourcePath": "C:\\Users\\aigne\\.vscode\\pet-shop\\contracts\\PetPriceContract.sol",
  "compiler": {
    "name": "solc",
    "version": "0.5.16+commit.9c3226ce.Emscripten.clang"
  },
  "schemaVersion": "3.4.16",
  "updatedAt": "2024-11-28T13:41:07.301Z",
  "devdoc": {
    "methods": {}
  },
  "userdoc": {
    "methods": {}
  }
}